{
  "_format": "hh-sol-artifact-1",
  "contractName": "DeAuth",
  "sourceName": "contracts/DeAuth.sol",
  "abi": [
    {
      "inputs": [],
      "stateMutability": "nonpayable",
      "type": "constructor"
    },
    {
      "anonymous": false,
      "inputs": [
        {
          "indexed": true,
          "internalType": "address",
          "name": "from",
          "type": "address"
        },
        {
          "indexed": false,
          "internalType": "uint256",
          "name": "timestamp",
          "type": "uint256"
        },
        {
          "indexed": false,
          "internalType": "string",
          "name": "socialMedia",
          "type": "string"
        },
        {
          "indexed": false,
          "internalType": "string",
          "name": "walletApp",
          "type": "string"
        }
      ],
      "name": "AddNewPassword",
      "type": "event"
    },
    {
      "anonymous": false,
      "inputs": [
        {
          "indexed": true,
          "internalType": "address",
          "name": "from",
          "type": "address"
        },
        {
          "indexed": false,
          "internalType": "uint256",
          "name": "timestamp",
          "type": "uint256"
        },
        {
          "indexed": false,
          "internalType": "string",
          "name": "socialMedia",
          "type": "string"
        },
        {
          "indexed": false,
          "internalType": "string",
          "name": "walletApp",
          "type": "string"
        }
      ],
      "name": "Disconnect",
      "type": "event"
    },
    {
      "anonymous": false,
      "inputs": [
        {
          "indexed": false,
          "internalType": "address",
          "name": "fromOld",
          "type": "address"
        },
        {
          "indexed": true,
          "internalType": "address",
          "name": "fromNew",
          "type": "address"
        },
        {
          "indexed": false,
          "internalType": "uint256",
          "name": "timestamp",
          "type": "uint256"
        },
        {
          "indexed": false,
          "internalType": "string",
          "name": "socialMedia",
          "type": "string"
        },
        {
          "indexed": false,
          "internalType": "string",
          "name": "walletApp",
          "type": "string"
        }
      ],
      "name": "MoveConnectedSocialMediaToNewWallet",
      "type": "event"
    },
    {
      "anonymous": false,
      "inputs": [
        {
          "indexed": true,
          "internalType": "address",
          "name": "from",
          "type": "address"
        },
        {
          "indexed": false,
          "internalType": "uint256",
          "name": "timestamp",
          "type": "uint256"
        },
        {
          "indexed": false,
          "internalType": "string",
          "name": "socialMedia",
          "type": "string"
        },
        {
          "indexed": false,
          "internalType": "string",
          "name": "walletApp",
          "type": "string"
        }
      ],
      "name": "changePassword",
      "type": "event"
    },
    {
      "inputs": [
        {
          "internalType": "string",
          "name": "socialMedia",
          "type": "string"
        },
        {
          "internalType": "string",
          "name": "walletApp",
          "type": "string"
        }
      ],
      "name": "changeSocialMediaPassword",
      "outputs": [],
      "stateMutability": "nonpayable",
      "type": "function"
    },
    {
      "inputs": [
        {
          "internalType": "string",
          "name": "socialMedia",
          "type": "string"
        },
        {
          "internalType": "string",
          "name": "walletApp",
          "type": "string"
        },
        {
          "internalType": "address",
          "name": "newWalletAddress",
          "type": "address"
        }
      ],
      "name": "changeWalletAddressForSpesificSocialMedia",
      "outputs": [],
      "stateMutability": "nonpayable",
      "type": "function"
    },
    {
      "inputs": [
        {
          "internalType": "string",
          "name": "value",
          "type": "string"
        },
        {
          "internalType": "string[]",
          "name": "list",
          "type": "string[]"
        }
      ],
      "name": "checkAValueExistInList",
      "outputs": [
        {
          "internalType": "bool",
          "name": "ret",
          "type": "bool"
        }
      ],
      "stateMutability": "pure",
      "type": "function"
    },
    {
      "inputs": [
        {
          "internalType": "string",
          "name": "socialMedia",
          "type": "string"
        },
        {
          "internalType": "string",
          "name": "walletApp",
          "type": "string"
        }
      ],
      "name": "connectNewSocialMedia",
      "outputs": [],
      "stateMutability": "nonpayable",
      "type": "function"
    },
    {
      "inputs": [
        {
          "internalType": "string",
          "name": "socialMedia",
          "type": "string"
        },
        {
          "internalType": "string",
          "name": "walletApp",
          "type": "string"
        }
      ],
      "name": "disconnectSocialMedia",
      "outputs": [],
      "stateMutability": "nonpayable",
      "type": "function"
    },
    {
      "inputs": [
        {
          "internalType": "string",
          "name": "walletApp",
          "type": "string"
        }
      ],
      "name": "getConnectedSocialMedias",
      "outputs": [
        {
          "internalType": "string[]",
          "name": "",
          "type": "string[]"
        }
      ],
      "stateMutability": "view",
      "type": "function"
    },
    {
      "inputs": [
        {
          "internalType": "string",
          "name": "walletApp",
          "type": "string"
        }
      ],
      "name": "getSalts",
      "outputs": [
        {
          "internalType": "uint256[]",
          "name": "",
          "type": "uint256[]"
        }
      ],
      "stateMutability": "view",
      "type": "function"
    },
    {
      "inputs": [
        {
          "internalType": "string",
          "name": "value",
          "type": "string"
        },
        {
          "internalType": "string[]",
          "name": "list",
          "type": "string[]"
        }
      ],
      "name": "indexOfValue",
      "outputs": [
        {
          "internalType": "uint256",
          "name": "index",
          "type": "uint256"
        }
      ],
      "stateMutability": "pure",
      "type": "function"
    }
  ],
  "bytecode": "0x608060405234801561001057600080fd5b506121bc806100206000396000f3fe608060405234801561001057600080fd5b50600436106100885760003560e01c80637eb095141161005b5780637eb0951414610125578063b6abcd6714610155578063b9e7b3b314610171578063fd0dd1521461018d57610088565b8063016696881461008d5780632f728995146100a957806336d8c9a0146100d95780634ea12541146100f5575b600080fd5b6100a760048036038101906100a2919061179f565b6101bd565b005b6100c360048036038101906100be91906118fd565b61049c565b6040516100d09190611990565b60405180910390f35b6100f360048036038101906100ee919061179f565b610506565b005b61010f600480360381019061010a91906119ab565b6108cd565b60405161011c9190611b3e565b60405180910390f35b61013f600480360381019061013a91906119ab565b610a00565b60405161014c9190611c28565b60405180910390f35b61016f600480360381019061016a919061179f565b610ab3565b005b61018b60048036038101906101869190611ca8565b610e2f565b005b6101a760048036038101906101a291906118fd565b61130f565b6040516101b49190611d42565b60405180910390f35b6102f0826000803373ffffffffffffffffffffffffffffffffffffffff1673ffffffffffffffffffffffffffffffffffffffff1681526020019081526020016000208360405161020d9190611d99565b9081526020016040518091039020805480602002602001604051908101604052809291908181526020016000905b828210156102e757838290600052602060002001805461025a90611ddf565b80601f016020809104026020016040519081016040528092919081815260200182805461028690611ddf565b80156102d35780601f106102a8576101008083540402835291602001916102d3565b820191906000526020600020905b8154815290600101906020018083116102b657829003601f168201915b50505050508152602001906001019061023b565b5050505061049c565b15610330576040517f08c379a000000000000000000000000000000000000000000000000000000000815260040161032790611e94565b60405180910390fd5b6000803373ffffffffffffffffffffffffffffffffffffffff1673ffffffffffffffffffffffffffffffffffffffff1681526020019081526020016000208160405161037c9190611d99565b9081526020016040518091039020829080600181540180825580915050600190039060005260206000200160009091909190915090805190602001906103c39291906114d5565b50600160003373ffffffffffffffffffffffffffffffffffffffff1673ffffffffffffffffffffffffffffffffffffffff168152602001908152602001600020816040516104119190611d99565b90815260200160405180910390204290806001815401808255809150506001900390600052602060002001600090919091909150553373ffffffffffffffffffffffffffffffffffffffff167f973b188520b83089e853306009e25c9f265b8d1543901c307e36cc513a10512342848460405161049093929190611eed565b60405180910390a25050565b600080600090505b82518110156104fa5783805190602001208382815181106104c8576104c7611f32565b5b60200260200101518051906020012014156104e7576001915050610500565b80806104f290611f90565b9150506104a4565b50600090505b92915050565b610639826000803373ffffffffffffffffffffffffffffffffffffffff1673ffffffffffffffffffffffffffffffffffffffff168152602001908152602001600020836040516105569190611d99565b9081526020016040518091039020805480602002602001604051908101604052809291908181526020016000905b828210156106305783829060005260206000200180546105a390611ddf565b80601f01602080910402602001604051908101604052809291908181526020018280546105cf90611ddf565b801561061c5780601f106105f15761010080835404028352916020019161061c565b820191906000526020600020905b8154815290600101906020018083116105ff57829003601f168201915b505050505081526020019060010190610584565b5050505061049c565b610678576040517f08c379a000000000000000000000000000000000000000000000000000000000815260040161066f9061204b565b60405180910390fd5b60006107ad836000803373ffffffffffffffffffffffffffffffffffffffff1673ffffffffffffffffffffffffffffffffffffffff168152602001908152602001600020846040516106ca9190611d99565b9081526020016040518091039020805480602002602001604051908101604052809291908181526020016000905b828210156107a457838290600052602060002001805461071790611ddf565b80601f016020809104026020016040519081016040528092919081815260200182805461074390611ddf565b80156107905780601f1061076557610100808354040283529160200191610790565b820191906000526020600020905b81548152906001019060200180831161077357829003601f168201915b5050505050815260200190600101906106f8565b5050505061130f565b9050610812816000803373ffffffffffffffffffffffffffffffffffffffff1673ffffffffffffffffffffffffffffffffffffffff168152602001908152602001600020846040516107ff9190611d99565b908152602001604051809103902061136a565b61087681600160003373ffffffffffffffffffffffffffffffffffffffff1673ffffffffffffffffffffffffffffffffffffffff168152602001908152602001600020846040516108639190611d99565b908152602001604051809103902061142d565b3373ffffffffffffffffffffffffffffffffffffffff167fa6211e18e9554771f8237ea299c013f2317351b0300aa2fc3264358f0137cd4a4285856040516108c093929190611eed565b60405180910390a2505050565b60606000803373ffffffffffffffffffffffffffffffffffffffff1673ffffffffffffffffffffffffffffffffffffffff1681526020019081526020016000208260405161091b9190611d99565b9081526020016040518091039020805480602002602001604051908101604052809291908181526020016000905b828210156109f557838290600052602060002001805461096890611ddf565b80601f016020809104026020016040519081016040528092919081815260200182805461099490611ddf565b80156109e15780601f106109b6576101008083540402835291602001916109e1565b820191906000526020600020905b8154815290600101906020018083116109c457829003601f168201915b505050505081526020019060010190610949565b505050509050919050565b6060600160003373ffffffffffffffffffffffffffffffffffffffff1673ffffffffffffffffffffffffffffffffffffffff16815260200190815260200160002082604051610a4f9190611d99565b9081526020016040518091039020805480602002602001604051908101604052809291908181526020018280548015610aa757602002820191906000526020600020905b815481526020019060010190808311610a93575b50505050509050919050565b610be6826000803373ffffffffffffffffffffffffffffffffffffffff1673ffffffffffffffffffffffffffffffffffffffff16815260200190815260200160002083604051610b039190611d99565b9081526020016040518091039020805480602002602001604051908101604052809291908181526020016000905b82821015610bdd578382906000526020600020018054610b5090611ddf565b80601f0160208091040260200160405190810160405280929190818152602001828054610b7c90611ddf565b8015610bc95780601f10610b9e57610100808354040283529160200191610bc9565b820191906000526020600020905b815481529060010190602001808311610bac57829003601f168201915b505050505081526020019060010190610b31565b5050505061049c565b610c25576040517f08c379a0000000000000000000000000000000000000000000000000000000008152600401610c1c9061204b565b60405180910390fd5b6000610d5a836000803373ffffffffffffffffffffffffffffffffffffffff1673ffffffffffffffffffffffffffffffffffffffff16815260200190815260200160002084604051610c779190611d99565b9081526020016040518091039020805480602002602001604051908101604052809291908181526020016000905b82821015610d51578382906000526020600020018054610cc490611ddf565b80601f0160208091040260200160405190810160405280929190818152602001828054610cf090611ddf565b8015610d3d5780601f10610d1257610100808354040283529160200191610d3d565b820191906000526020600020905b815481529060010190602001808311610d2057829003601f168201915b505050505081526020019060010190610ca5565b5050505061130f565b905042600160003373ffffffffffffffffffffffffffffffffffffffff1673ffffffffffffffffffffffffffffffffffffffff16815260200190815260200160002083604051610daa9190611d99565b90815260200160405180910390208281548110610dca57610dc9611f32565b5b90600052602060002001819055503373ffffffffffffffffffffffffffffffffffffffff167f88290220815a595787ad7f1a2e77e83d01e353e85b5d819ff511b4b1227ce437428585604051610e2293929190611eed565b60405180910390a2505050565b610f62836000803373ffffffffffffffffffffffffffffffffffffffff1673ffffffffffffffffffffffffffffffffffffffff16815260200190815260200160002084604051610e7f9190611d99565b9081526020016040518091039020805480602002602001604051908101604052809291908181526020016000905b82821015610f59578382906000526020600020018054610ecc90611ddf565b80601f0160208091040260200160405190810160405280929190818152602001828054610ef890611ddf565b8015610f455780601f10610f1a57610100808354040283529160200191610f45565b820191906000526020600020905b815481529060010190602001808311610f2857829003601f168201915b505050505081526020019060010190610ead565b5050505061049c565b610fa1576040517f08c379a0000000000000000000000000000000000000000000000000000000008152600401610f989061204b565b60405180910390fd5b60006110d6846000803373ffffffffffffffffffffffffffffffffffffffff1673ffffffffffffffffffffffffffffffffffffffff16815260200190815260200160002085604051610ff39190611d99565b9081526020016040518091039020805480602002602001604051908101604052809291908181526020016000905b828210156110cd57838290600052602060002001805461104090611ddf565b80601f016020809104026020016040519081016040528092919081815260200182805461106c90611ddf565b80156110b95780601f1061108e576101008083540402835291602001916110b9565b820191906000526020600020905b81548152906001019060200180831161109c57829003601f168201915b505050505081526020019060010190611021565b5050505061130f565b905061113b816000803373ffffffffffffffffffffffffffffffffffffffff1673ffffffffffffffffffffffffffffffffffffffff168152602001908152602001600020856040516111289190611d99565b908152602001604051809103902061136a565b61119f81600160003373ffffffffffffffffffffffffffffffffffffffff1673ffffffffffffffffffffffffffffffffffffffff1681526020019081526020016000208560405161118c9190611d99565b908152602001604051809103902061142d565b6000808373ffffffffffffffffffffffffffffffffffffffff1673ffffffffffffffffffffffffffffffffffffffff168152602001908152602001600020836040516111eb9190611d99565b9081526020016040518091039020849080600181540180825580915050600190039060005260206000200160009091909190915090805190602001906112329291906114d5565b50600160008373ffffffffffffffffffffffffffffffffffffffff1673ffffffffffffffffffffffffffffffffffffffff168152602001908152602001600020836040516112809190611d99565b90815260200160405180910390204290806001815401808255809150506001900390600052602060002001600090919091909150558173ffffffffffffffffffffffffffffffffffffffff167fbebf6fe0e36a892e81b35181329dee68cd9779afe0b6701c86081eb0351398fc33428787604051611301949392919061207a565b60405180910390a250505050565b60005b815181101561136357828051906020012082828151811061133657611335611f32565b5b602002602001015180519060200120141561135057611364565b808061135b90611f90565b915050611312565b5b92915050565b60008290505b6001828054905061138191906120cd565b8110156113f957816001826113969190612101565b815481106113a7576113a6611f32565b5b906000526020600020018282815481106113c4576113c3611f32565b5b906000526020600020019080546113da90611ddf565b6113e592919061155b565b5080806113f190611f90565b915050611370565b508080548061140b5761140a612157565b5b60019003818190600052602060002001600061142791906115e8565b90555050565b60008290505b6001828054905061144491906120cd565b8110156114a957816001826114599190612101565b8154811061146a57611469611f32565b5b906000526020600020015482828154811061148857611487611f32565b5b906000526020600020018190555080806114a190611f90565b915050611433565b50808054806114bb576114ba612157565b5b600190038181906000526020600020016000905590555050565b8280546114e190611ddf565b90600052602060002090601f016020900481019282611503576000855561154a565b82601f1061151c57805160ff191683800117855561154a565b8280016001018555821561154a579182015b8281111561154957825182559160200191906001019061152e565b5b5090506115579190611628565b5090565b82805461156790611ddf565b90600052602060002090601f01602090048101928261158957600085556115d7565b82601f1061159a57805485556115d7565b828001600101855582156115d757600052602060002091601f016020900482015b828111156115d65782548255916001019190600101906115bb565b5b5090506115e49190611628565b5090565b5080546115f490611ddf565b6000825580601f106116065750611625565b601f0160209004906000526020600020908101906116249190611628565b5b50565b5b80821115611641576000816000905550600101611629565b5090565b6000604051905090565b600080fd5b600080fd5b600080fd5b600080fd5b6000601f19601f8301169050919050565b7f4e487b7100000000000000000000000000000000000000000000000000000000600052604160045260246000fd5b6116ac82611663565b810181811067ffffffffffffffff821117156116cb576116ca611674565b5b80604052505050565b60006116de611645565b90506116ea82826116a3565b919050565b600067ffffffffffffffff82111561170a57611709611674565b5b61171382611663565b9050602081019050919050565b82818337600083830152505050565b600061174261173d846116ef565b6116d4565b90508281526020810184848401111561175e5761175d61165e565b5b611769848285611720565b509392505050565b600082601f83011261178657611785611659565b5b813561179684826020860161172f565b91505092915050565b600080604083850312156117b6576117b561164f565b5b600083013567ffffffffffffffff8111156117d4576117d3611654565b5b6117e085828601611771565b925050602083013567ffffffffffffffff81111561180157611800611654565b5b61180d85828601611771565b9150509250929050565b600067ffffffffffffffff82111561183257611831611674565b5b602082029050602081019050919050565b600080fd5b600061185b61185684611817565b6116d4565b9050808382526020820190506020840283018581111561187e5761187d611843565b5b835b818110156118c557803567ffffffffffffffff8111156118a3576118a2611659565b5b8086016118b08982611771565b85526020850194505050602081019050611880565b5050509392505050565b600082601f8301126118e4576118e3611659565b5b81356118f4848260208601611848565b91505092915050565b600080604083850312156119145761191361164f565b5b600083013567ffffffffffffffff81111561193257611931611654565b5b61193e85828601611771565b925050602083013567ffffffffffffffff81111561195f5761195e611654565b5b61196b858286016118cf565b9150509250929050565b60008115159050919050565b61198a81611975565b82525050565b60006020820190506119a56000830184611981565b92915050565b6000602082840312156119c1576119c061164f565b5b600082013567ffffffffffffffff8111156119df576119de611654565b5b6119eb84828501611771565b91505092915050565b600081519050919050565b600082825260208201905092915050565b6000819050602082019050919050565b600081519050919050565b600082825260208201905092915050565b60005b83811015611a5a578082015181840152602081019050611a3f565b83811115611a69576000848401525b50505050565b6000611a7a82611a20565b611a848185611a2b565b9350611a94818560208601611a3c565b611a9d81611663565b840191505092915050565b6000611ab48383611a6f565b905092915050565b6000602082019050919050565b6000611ad4826119f4565b611ade81856119ff565b935083602082028501611af085611a10565b8060005b85811015611b2c5784840389528151611b0d8582611aa8565b9450611b1883611abc565b925060208a01995050600181019050611af4565b50829750879550505050505092915050565b60006020820190508181036000830152611b588184611ac9565b905092915050565b600081519050919050565b600082825260208201905092915050565b6000819050602082019050919050565b6000819050919050565b611b9f81611b8c565b82525050565b6000611bb18383611b96565b60208301905092915050565b6000602082019050919050565b6000611bd582611b60565b611bdf8185611b6b565b9350611bea83611b7c565b8060005b83811015611c1b578151611c028882611ba5565b9750611c0d83611bbd565b925050600181019050611bee565b5085935050505092915050565b60006020820190508181036000830152611c428184611bca565b905092915050565b600073ffffffffffffffffffffffffffffffffffffffff82169050919050565b6000611c7582611c4a565b9050919050565b611c8581611c6a565b8114611c9057600080fd5b50565b600081359050611ca281611c7c565b92915050565b600080600060608486031215611cc157611cc061164f565b5b600084013567ffffffffffffffff811115611cdf57611cde611654565b5b611ceb86828701611771565b935050602084013567ffffffffffffffff811115611d0c57611d0b611654565b5b611d1886828701611771565b9250506040611d2986828701611c93565b9150509250925092565b611d3c81611b8c565b82525050565b6000602082019050611d576000830184611d33565b92915050565b600081905092915050565b6000611d7382611a20565b611d7d8185611d5d565b9350611d8d818560208601611a3c565b80840191505092915050565b6000611da58284611d68565b915081905092915050565b7f4e487b7100000000000000000000000000000000000000000000000000000000600052602260045260246000fd5b60006002820490506001821680611df757607f821691505b60208210811415611e0b57611e0a611db0565b5b50919050565b600082825260208201905092915050565b7f536f6369616c206d6564696120616c726561647920636f6e6e6563746564207460008201527f6f20446541757468000000000000000000000000000000000000000000000000602082015250565b6000611e7e602883611e11565b9150611e8982611e22565b604082019050919050565b60006020820190508181036000830152611ead81611e71565b9050919050565b6000611ebf82611a20565b611ec98185611e11565b9350611ed9818560208601611a3c565b611ee281611663565b840191505092915050565b6000606082019050611f026000830186611d33565b8181036020830152611f148185611eb4565b90508181036040830152611f288184611eb4565b9050949350505050565b7f4e487b7100000000000000000000000000000000000000000000000000000000600052603260045260246000fd5b7f4e487b7100000000000000000000000000000000000000000000000000000000600052601160045260246000fd5b6000611f9b82611b8c565b91507fffffffffffffffffffffffffffffffffffffffffffffffffffffffffffffffff821415611fce57611fcd611f61565b5b600182019050919050565b7f536f6369616c206d65646961206973206e6f7420636f6e6e656374656420746f60008201527f2044654175746800000000000000000000000000000000000000000000000000602082015250565b6000612035602783611e11565b915061204082611fd9565b604082019050919050565b6000602082019050818103600083015261206481612028565b9050919050565b61207481611c6a565b82525050565b600060808201905061208f600083018761206b565b61209c6020830186611d33565b81810360408301526120ae8185611eb4565b905081810360608301526120c28184611eb4565b905095945050505050565b60006120d882611b8c565b91506120e383611b8c565b9250828210156120f6576120f5611f61565b5b828203905092915050565b600061210c82611b8c565b915061211783611b8c565b9250827fffffffffffffffffffffffffffffffffffffffffffffffffffffffffffffffff0382111561214c5761214b611f61565b5b828201905092915050565b7f4e487b7100000000000000000000000000000000000000000000000000000000600052603160045260246000fdfea264697066735822122091ba629c04f35ee5c131cb5b681aadf52305bd68ca74d79ada7804843feb02a464736f6c63430008090033",
  "linkReferences": {},
  "deployedLinkReferences": {}
}